{
  "_format": "hh-sol-artifact-1",
  "contractName": "TwitterChain",
  "sourceName": "contracts/TwitterChain.sol",
  "abi": [
    {
      "anonymous": false,
      "inputs": [
        {
          "indexed": false,
          "internalType": "uint256",
          "name": "id",
          "type": "uint256"
        },
        {
          "indexed": false,
          "internalType": "string",
          "name": "content",
          "type": "string"
        },
        {
          "indexed": true,
          "internalType": "address",
          "name": "from",
          "type": "address"
        },
        {
          "indexed": true,
          "internalType": "address",
          "name": "to",
          "type": "address"
        },
        {
          "indexed": false,
          "internalType": "uint256",
          "name": "createdAt",
          "type": "uint256"
        }
      ],
      "name": "MessageSent",
      "type": "event"
    },
    {
      "anonymous": false,
      "inputs": [
        {
          "indexed": false,
          "internalType": "uint256",
          "name": "id",
          "type": "uint256"
        },
        {
          "indexed": true,
          "internalType": "address",
          "name": "author",
          "type": "address"
        },
        {
          "indexed": false,
          "internalType": "string",
          "name": "content",
          "type": "string"
        },
        {
          "indexed": false,
          "internalType": "uint256",
          "name": "createdAt",
          "type": "uint256"
        }
      ],
      "name": "TweetSent",
      "type": "event"
    },
    {
      "inputs": [
        {
          "internalType": "address",
          "name": "_followed",
          "type": "address"
        }
      ],
      "name": "follow",
      "outputs": [],
      "stateMutability": "nonpayable",
      "type": "function"
    },
    {
      "inputs": [
        {
          "internalType": "uint256",
          "name": "count",
          "type": "uint256"
        }
      ],
      "name": "getLatestTweets",
      "outputs": [
        {
          "components": [
            {
              "internalType": "uint256",
              "name": "id",
              "type": "uint256"
            },
            {
              "internalType": "address",
              "name": "author",
              "type": "address"
            },
            {
              "internalType": "string",
              "name": "content",
              "type": "string"
            },
            {
              "internalType": "uint256",
              "name": "createdAt",
              "type": "uint256"
            }
          ],
          "internalType": "struct TwitterChain.Tweet[]",
          "name": "",
          "type": "tuple[]"
        }
      ],
      "stateMutability": "view",
      "type": "function"
    },
    {
      "inputs": [
        {
          "internalType": "address",
          "name": "_user",
          "type": "address"
        }
      ],
      "name": "getTweetsOf",
      "outputs": [
        {
          "components": [
            {
              "internalType": "uint256",
              "name": "id",
              "type": "uint256"
            },
            {
              "internalType": "address",
              "name": "author",
              "type": "address"
            },
            {
              "internalType": "string",
              "name": "content",
              "type": "string"
            },
            {
              "internalType": "uint256",
              "name": "createdAt",
              "type": "uint256"
            }
          ],
          "internalType": "struct TwitterChain.Tweet[]",
          "name": "",
          "type": "tuple[]"
        }
      ],
      "stateMutability": "view",
      "type": "function"
    },
    {
      "inputs": [],
      "name": "nextMessageId",
      "outputs": [
        {
          "internalType": "uint256",
          "name": "",
          "type": "uint256"
        }
      ],
      "stateMutability": "view",
      "type": "function"
    },
    {
      "inputs": [],
      "name": "nextTweetId",
      "outputs": [
        {
          "internalType": "uint256",
          "name": "",
          "type": "uint256"
        }
      ],
      "stateMutability": "view",
      "type": "function"
    },
    {
      "inputs": [
        {
          "internalType": "address",
          "name": "",
          "type": "address"
        }
      ],
      "name": "numberTweetsOf",
      "outputs": [
        {
          "internalType": "uint256",
          "name": "",
          "type": "uint256"
        }
      ],
      "stateMutability": "view",
      "type": "function"
    },
    {
      "inputs": [
        {
          "internalType": "string",
          "name": "_content",
          "type": "string"
        },
        {
          "internalType": "address",
          "name": "_to",
          "type": "address"
        }
      ],
      "name": "sendMessage",
      "outputs": [],
      "stateMutability": "nonpayable",
      "type": "function"
    },
    {
      "inputs": [
        {
          "internalType": "string",
          "name": "_content",
          "type": "string"
        },
        {
          "internalType": "address",
          "name": "_from",
          "type": "address"
        },
        {
          "internalType": "address",
          "name": "_to",
          "type": "address"
        }
      ],
      "name": "sendMessageFrom",
      "outputs": [],
      "stateMutability": "nonpayable",
      "type": "function"
    },
    {
      "inputs": [
        {
          "internalType": "string",
          "name": "_content",
          "type": "string"
        }
      ],
      "name": "tweet",
      "outputs": [],
      "stateMutability": "nonpayable",
      "type": "function"
    },
    {
      "inputs": [
        {
          "internalType": "address",
          "name": "_from",
          "type": "address"
        },
        {
          "internalType": "string",
          "name": "_content",
          "type": "string"
        }
      ],
      "name": "tweetFrom",
      "outputs": [],
      "stateMutability": "nonpayable",
      "type": "function"
    }
  ],
  "bytecode": "0x608060405234801561001057600080fd5b506117d7806100206000396000f3fe608060405234801561001057600080fd5b506004361061009e5760003560e01c8063c48d6d5e11610066578063c48d6d5e14610159578063c6bc463c14610175578063eefbf17e14610191578063fb46d4c5146101af578063fd65e981146101cb5761009e565b806313764f2c146100a3578063179a21e8146100d35780634dbf27cc146100ef5780634dc0a6871461010b5780638076e02b1461013b575b600080fd5b6100bd60048036038101906100b89190610ffa565b6101fb565b6040516100ca9190611408565b60405180910390f35b6100ed60048036038101906100e89190611134565b610213565b005b61010960048036038101906101049190610ffa565b610268565b005b610125600480360381019061012091906111a8565b61030b565b60405161013291906113a6565b60405180910390f35b610143610514565b6040516101509190611408565b60405180910390f35b610173600480360381019061016e91906110d4565b61051a565b005b61018f600480360381019061018a9190611027565b61056e565b005b6101996105c1565b6040516101a69190611408565b60405180910390f35b6101c960048036038101906101c49190611087565b6105c7565b005b6101e560048036038101906101e09190610ffa565b610619565b6040516101f291906113a6565b60405180910390f35b60026020528060005260406000206000915090505481565b61026284848080601f016020809104026020016040519081016040528093929190818152602001838380828437600081840152601f19601f82011690508083019250505050505050838361087b565b50505050565b600460008273ffffffffffffffffffffffffffffffffffffffff1673ffffffffffffffffffffffffffffffffffffffff168152602001908152602001600020819080600181540180825580915050600190039060005260206000200160009091909190916101000a81548173ffffffffffffffffffffffffffffffffffffffff021916908373ffffffffffffffffffffffffffffffffffffffff16021790555050565b606060008211801561031f57506006548211155b61035e576040517f08c379a0000000000000000000000000000000000000000000000000000000008152600401610355906113e8565b60405180910390fd5b60008267ffffffffffffffff81111561037a576103796116c8565b5b6040519080825280602002602001820160405280156103b357816020015b6103a0610e99565b8152602001906001900390816103985790505b5090506000836006546103c6919061151d565b90505b60065481101561050a57600080600083815260200190815260200160002090506040518060800160405280826000015481526020018260010160009054906101000a900473ffffffffffffffffffffffffffffffffffffffff1673ffffffffffffffffffffffffffffffffffffffff16815260200182600201805461044d906115c0565b80601f0160208091040260200160405190810160405280929190818152602001828054610479906115c0565b80156104c65780601f1061049b576101008083540402835291602001916104c6565b820191906000526020600020905b8154815290600101906020018083116104a957829003601f168201915b5050505050815260200182600301548152508383815181106104eb576104ea611699565b5b6020026020010181905250508080610502906115f2565b9150506103c9565b5080915050919050565b60065481565b61056983838080601f016020809104026020016040519081016040528093929190818152602001838380828437600081840152601f19601f82011690508083019250505050505050338361087b565b505050565b6105bc8383838080601f016020809104026020016040519081016040528093929190818152602001838380828437600081840152601f19601f82011690508083019250505050505050610b9a565b505050565b60075481565b6106153383838080601f016020809104026020016040519081016040528093929190818152602001838380828437600081840152601f19601f82011690508083019250505050505050610b9a565b5050565b60606000600260008473ffffffffffffffffffffffffffffffffffffffff1673ffffffffffffffffffffffffffffffffffffffff1681526020019081526020016000205490506000600160008573ffffffffffffffffffffffffffffffffffffffff1673ffffffffffffffffffffffffffffffffffffffff168152602001908152602001600020905060008267ffffffffffffffff8111156106be576106bd6116c8565b5b6040519080825280602002602001820160405280156106f757816020015b6106e4610e99565b8152602001906001900390816106dc5790505b509050600083838054905061070c919061151d565b90505b828054905081101561086f57600080600085848154811061073357610732611699565b5b9060005260206000200154815260200190815260200160002090506040518060800160405280826000015481526020018260010160009054906101000a900473ffffffffffffffffffffffffffffffffffffffff1673ffffffffffffffffffffffffffffffffffffffff1681526020018260020180546107b2906115c0565b80601f01602080910402602001604051908101604052809291908181526020018280546107de906115c0565b801561082b5780601f106108005761010080835404028352916020019161082b565b820191906000526020600020905b81548152906001019060200180831161080e57829003601f168201915b5050505050815260200182600301548152508383815181106108505761084f611699565b5b6020026020010181905250508080610867906115f2565b91505061070f565b50809350505050919050565b8160011515600560008373ffffffffffffffffffffffffffffffffffffffff1673ffffffffffffffffffffffffffffffffffffffff16815260200190815260200160002060003373ffffffffffffffffffffffffffffffffffffffff1673ffffffffffffffffffffffffffffffffffffffff16815260200190815260200160002060009054906101000a900460ff161515148061094357503373ffffffffffffffffffffffffffffffffffffffff168173ffffffffffffffffffffffffffffffffffffffff16145b610982576040517f08c379a0000000000000000000000000000000000000000000000000000000008152600401610979906113c8565b60405180910390fd5b60008273ffffffffffffffffffffffffffffffffffffffff168473ffffffffffffffffffffffffffffffffffffffff166109bc91906114c7565b9050600360008281526020019081526020016000206040518060a0016040528060075481526020018781526020018673ffffffffffffffffffffffffffffffffffffffff1681526020018573ffffffffffffffffffffffffffffffffffffffff168152602001428152509080600181540180825580915050600190039060005260206000209060050201600090919091909150600082015181600001556020820151816001019080519060200190610a75929190610ed7565b5060408201518160020160006101000a81548173ffffffffffffffffffffffffffffffffffffffff021916908373ffffffffffffffffffffffffffffffffffffffff16021790555060608201518160030160006101000a81548173ffffffffffffffffffffffffffffffffffffffff021916908373ffffffffffffffffffffffffffffffffffffffff1602179055506080820151816004015550508273ffffffffffffffffffffffffffffffffffffffff168473ffffffffffffffffffffffffffffffffffffffff167f053227a5bdcc96607ea58ea40dd04c9394ddebceb1cd539ad1289d8b074bc4eb6007548842604051610b7393929190611423565b60405180910390a360076000815480929190610b8e906115f2565b91905055505050505050565b8160011515600560008373ffffffffffffffffffffffffffffffffffffffff1673ffffffffffffffffffffffffffffffffffffffff16815260200190815260200160002060003373ffffffffffffffffffffffffffffffffffffffff1673ffffffffffffffffffffffffffffffffffffffff16815260200190815260200160002060009054906101000a900460ff1615151480610c6257503373ffffffffffffffffffffffffffffffffffffffff168173ffffffffffffffffffffffffffffffffffffffff16145b610ca1576040517f08c379a0000000000000000000000000000000000000000000000000000000008152600401610c98906113c8565b60405180910390fd5b604051806080016040528060065481526020018473ffffffffffffffffffffffffffffffffffffffff1681526020018381526020014281525060008060065481526020019081526020016000206000820151816000015560208201518160010160006101000a81548173ffffffffffffffffffffffffffffffffffffffff021916908373ffffffffffffffffffffffffffffffffffffffff1602179055506040820151816002019080519060200190610d5b929190610ed7565b5060608201518160030155905050600160003373ffffffffffffffffffffffffffffffffffffffff1673ffffffffffffffffffffffffffffffffffffffff16815260200190815260200160002060065490806001815401808255809150506001900390600052602060002001600090919091909150556001600260003373ffffffffffffffffffffffffffffffffffffffff1673ffffffffffffffffffffffffffffffffffffffff1681526020019081526020016000206000828254610e2191906114c7565b925050819055508273ffffffffffffffffffffffffffffffffffffffff167f8d6b17b300471dd2e4fef05e2e70f50c236372b9a4aaf37cdb52644d99bc21a76006548442604051610e7493929190611423565b60405180910390a260066000815480929190610e8f906115f2565b9190505550505050565b604051806080016040528060008152602001600073ffffffffffffffffffffffffffffffffffffffff16815260200160608152602001600081525090565b828054610ee3906115c0565b90600052602060002090601f016020900481019282610f055760008555610f4c565b82601f10610f1e57805160ff1916838001178555610f4c565b82800160010185558215610f4c579182015b82811115610f4b578251825591602001919060010190610f30565b5b509050610f599190610f5d565b5090565b5b80821115610f76576000816000905550600101610f5e565b5090565b600081359050610f8981611773565b92915050565b60008083601f840112610fa557610fa46116fc565b5b8235905067ffffffffffffffff811115610fc257610fc16116f7565b5b602083019150836001820283011115610fde57610fdd611701565b5b9250929050565b600081359050610ff48161178a565b92915050565b6000602082840312156110105761100f61170b565b5b600061101e84828501610f7a565b91505092915050565b6000806000604084860312156110405761103f61170b565b5b600061104e86828701610f7a565b935050602084013567ffffffffffffffff81111561106f5761106e611706565b5b61107b86828701610f8f565b92509250509250925092565b6000806020838503121561109e5761109d61170b565b5b600083013567ffffffffffffffff8111156110bc576110bb611706565b5b6110c885828601610f8f565b92509250509250929050565b6000806000604084860312156110ed576110ec61170b565b5b600084013567ffffffffffffffff81111561110b5761110a611706565b5b61111786828701610f8f565b9350935050602061112a86828701610f7a565b9150509250925092565b6000806000806060858703121561114e5761114d61170b565b5b600085013567ffffffffffffffff81111561116c5761116b611706565b5b61117887828801610f8f565b9450945050602061118b87828801610f7a565b925050604061119c87828801610f7a565b91505092959194509250565b6000602082840312156111be576111bd61170b565b5b60006111cc84828501610fe5565b91505092915050565b60006111e18383611325565b905092915050565b6111f281611551565b82525050565b600061120382611471565b61120d8185611494565b93508360208202850161121f85611461565b8060005b8581101561125b578484038952815161123c85826111d5565b945061124783611487565b925060208a01995050600181019050611223565b50829750879550505050505092915050565b60006112788261147c565b61128281856114a5565b935061129281856020860161158d565b61129b81611710565b840191505092915050565b60006112b18261147c565b6112bb81856114b6565b93506112cb81856020860161158d565b6112d481611710565b840191505092915050565b60006112ec6017836114b6565b91506112f782611721565b602082019050919050565b600061130f6020836114b6565b915061131a8261174a565b602082019050919050565b600060808301600083015161133d6000860182611388565b50602083015161135060208601826111e9565b5060408301518482036040860152611368828261126d565b915050606083015161137d6060860182611388565b508091505092915050565b61139181611583565b82525050565b6113a081611583565b82525050565b600060208201905081810360008301526113c081846111f8565b905092915050565b600060208201905081810360008301526113e1816112df565b9050919050565b6000602082019050818103600083015261140181611302565b9050919050565b600060208201905061141d6000830184611397565b92915050565b60006060820190506114386000830186611397565b818103602083015261144a81856112a6565b90506114596040830184611397565b949350505050565b6000819050602082019050919050565b600081519050919050565b600081519050919050565b6000602082019050919050565b600082825260208201905092915050565b600082825260208201905092915050565b600082825260208201905092915050565b60006114d282611583565b91506114dd83611583565b9250827fffffffffffffffffffffffffffffffffffffffffffffffffffffffffffffffff038211156115125761151161163b565b5b828201905092915050565b600061152882611583565b915061153383611583565b9250828210156115465761154561163b565b5b828203905092915050565b600061155c82611563565b9050919050565b600073ffffffffffffffffffffffffffffffffffffffff82169050919050565b6000819050919050565b60005b838110156115ab578082015181840152602081019050611590565b838111156115ba576000848401525b50505050565b600060028204905060018216806115d857607f821691505b602082108114156115ec576115eb61166a565b5b50919050565b60006115fd82611583565b91507fffffffffffffffffffffffffffffffffffffffffffffffffffffffffffffffff8214156116305761162f61163b565b5b600182019050919050565b7f4e487b7100000000000000000000000000000000000000000000000000000000600052601160045260246000fd5b7f4e487b7100000000000000000000000000000000000000000000000000000000600052602260045260246000fd5b7f4e487b7100000000000000000000000000000000000000000000000000000000600052603260045260246000fd5b7f4e487b7100000000000000000000000000000000000000000000000000000000600052604160045260246000fd5b600080fd5b600080fd5b600080fd5b600080fd5b600080fd5b6000601f19601f8301169050919050565b7f4f70657261746f72206e6f7420617574686f72697a6564000000000000000000600082015250565b7f546f6f20666577206f72206d616e792074776565747320746f2072657475726e600082015250565b61177c81611551565b811461178757600080fd5b50565b61179381611583565b811461179e57600080fd5b5056fea2646970667358221220ad0e49f9560d7ff2b31d59bb3df1353fea42b739d4bdc354c453bf2234d6122e64736f6c63430008070033",
  "linkReferences": {},
  "deployedLinkReferences": {}
}